:040000000C947D00DF
:100004000C9400000C9400000C9400000C9400006C
:100014000C9400000C9400000C9400000C9400005C
:100024000C9400000C9400000C9400000C9400004C
:100034000C9400000C9400000C9400000C9400003C
:100044000C9400000C9400000C9400000C9400002C
:100054000C9400000C9400000C9400000C9400001C
:100064000C9400001027E80364000A00010000104B
:1000740000011000010050415449454E54004D4FB9
:100084004E49544F52494E47004741533A0050524B
:100094004553535552453A0047415320414C45522C
:1000A4005400505245535355524520414C455254E7
:1000B400004849474820564F4C5420414C4552541F
:1000C400000080C0080000037A000B0008038200CF
:1000D400050013038D000A00180392000A0022038E
:1000E4009C000F002C03A60010003B03B500020087
:1000F4004B03C6000000F894EE27EFBBF1E0F5BF18
:10010400E5BF8DE0A2E0BB27ED938A95E9F780E097
:1001140098E0A0E0B1E0ED930197E9F7E8ECF0E0B6
:1001240085919591009761F0A591B59105901590F1
:10013400BF01F00105900D920197E1F7FB01F0CFAB
:10014400E0E0EEBBEFEFEDBFE8E0EEBFC0E0D3E0F0
:100154000C940501AA93E881E06CE0937C008BE1A8
:100164008A95F1F7E0917A00E064E0937A00E091F7
:100174007A00E071E1F3E0917A00E061E0937A00C3
:10018400E0917800F09179000C945A02BA93AA9302
:1001940021970E94BC02AF81B885EAE0F0E00E949A
:1001A40085028F01AF81B885EAE0F0E00E949D02EC
:1001B4003E2FD801EAE0F0E00E949D022E2FD801E4
:1001C400EAE0F0E00E9485025E2FA52FBB27EAE05B
:1001D400F0E00E94A0024E2FA52FB0E0EAE0F0E08C
:1001E4000E949802EE83AE81A05D0FD1A42FA05D82
:1001F4000CD1A22FA05D09D1A32FA05D06D10E942E
:10020400C30229960895E0E8E0936100E0E0E093FA
:100214006100E2E0E4B9E5B9E0E0E7B9E8B9E4E0B7
:10022400EAB9E2E1EBB9E0E0E4BDE5BDE6BDE7BD76
:10023400E8BDE0938000E0938100E0938500E093C3
:100244008400E0938700E0938600E0938900E093C4
:100254008800E0938B00E0938A00E093B600E0937B
:10026400B000E093B100E093B200E093B300E093F8
:10027400B400E0936E00E0936F00E0937000E093AD
:100284006900EDBBE0936800E093C000E8E1E0930F
:10029400C100E6E0E093C200E0E0E093C500E3E3E0
:1002A400E093C400E0E8E0BFE0E0E0937F00E09387
:1002B4007E00E0ECE0937C00E3E8E0937A00E0E089
:1002C400E0937B00ECBDE093BC005A98A0E1C3D05E
:1002D4000E945C02A0E0B3E0ADD0E0E0EA93A1E0CC
:1002E4007BD0A8E0B3E00E946102A5E033DFDF0128
:1002F400E5E0F0E00E9485023E2E4F2EE0E0EA9316
:10030400A1E06AD0A3E1B3E095D0A32DB42D3EDFE4
:100314005A982998A3E01EDF5E2E6F2E0E945C027D
:10032400A8E1B3E087D0A52DB62D30DF5A982998DF
:10033400E6E9F0E0E315F4053CF4299A0E945C0236
:10034400A2E2B3E00E946102EEEEF2E0E515F605EA
:100354003CF4299A0E945C02ACE2B3E00E94610280
:100364004C9907C0299A0E945C02ABE3B3E00E9457
:100374006102BBCFFFCFAA93E881E07111F05D9ACF
:1003840001C05D98E881E07211F05E9A01C05E9848
:10039400E881E07411F05F9A01C05F98E881E07829
:1003A40011F0289A01C028988DE08A95F1F7429AB5
:1003B4008DE08A95F1F742988DE08A95F1F778C03F
:1003C400AA93A881D8DFE881E295E883A881D3DFE6
:1003D40085E88A95F1F76CC0AA93E881F0E0E55BC3
:1003E400FC4FE081A981AE0FEBDFA98098802296B3
:1003F4000895A2E00E946902ACE0E2DFA1E00E945D
:100404006902E0E09E2EAE2E0895AA93A881AA3038
:1004140011F0AC1448F0E0E0EA939394A92DDCDFEA
:10042400A881AA3009F444C0A394409AA881C8DFE3
:1004340040983EC0BA93AA931A93A981BA81ED91C8
:10044400A983BA831E2FE03019F0A12FDEDFF5CF88
:10045400188123960895AA93559A569A579A209AE2
:100464003A9A389A399A429840984198C880E881D3
:10047400E058E0934D03E881E054E0934E03A4E197
:10048400B0E00E9477020E946F020E946F020E94F5
:100494006F02A0E270DF88EC90E00197F1F7A8E228
:1004A4008FDFA4E08DDFA5E88BDFA6E089DFA1DF85
:1004B40021960895E0E0EA93A0E00C94EE010E94F6
:1004C4001C02A0EDB7E00E9477020C94FB010E948D
:1004D400E201A3E0B0E00C947702A0E30E94BD0126
:1004E40088EC90E00197F1F70895109639F080EDCB
:1004F40097E00197F1F7A8951197C9F70895F19539
:10050400E195F04008950024112490E1AA0FBB1F47
:10051400001C111C0E1A1F0A18F40E0E1F1E01C017
:10052400A1609A9599F7FD01D001089515D0EBDFEC
:100534000EF4E5DF0895E7DFFD010895E894B7FFC1
:1005440004C0A095B09511966894F7FDD8DFDBDF61
:10055400FD010EF4D4DF0895E894F7FF02C0CFDF65
:100564006894B7FF06C0A095B095119600F803945F
:1005740000FA08955A934A933A932A931A930A9342
:1005840008955D814C813B812A81198108810895F8
:00000001FF
