:080000000C947E000C9400003A
:100008000C9400000C9400000C9400000C94000068
:100018000C9400000C9400000C9400000C94000058
:100028000C9400000C9400000C9400000C94000048
:100038000C9400000C9400000C9400000C94000038
:100048000C9400000C9400000C9400000C94000028
:100058000C9400000C9400000C9400000C94000018
:100068001027E80364000A000100001000011000D6
:100078000100494E445553545249414C004D4F4E8E
:1000880049544F52494E47004741533A0050524550
:1000980053535552453A0047415320414C45525419
:1000A80000505245535355524520414C4552540037
:1000B8004849474820564F4C5420414C455254001B
:1000C80080C00B0000037A000B000B0385000500BD
:1000D800160390000A001B0395000A0025039F00E1
:1000E8000F002F03A90010003E03B80002004E03C2
:1000F800C8000000F894EE27EFBBF1E0F5BFE5BFBC
:100108008DE0A2E0BB27ED938A95E9F780E098E0BF
:10011800A0E0B1E0ED930197E9F7EAECF0E0859112
:100128009591009761F0A591B59105901590BF0143
:10013800F00105900D920197E1F7FB01F0CFE0E0A7
:10014800EEBBEFEFEDBFE8E0EEBFC0E0D3E00C940C
:100158000601AA93E881E06CE0937C008BE18A9524
:10016800F1F7E0917A00E064E0937A00E0917A0098
:10017800E071E1F3E0917A00E061E0937A00E091C8
:100188007800F09179000C945C02BA93AA932197B5
:100198000E94BE02AF81B885EAE0F0E00E948702C3
:1001A8008F01AF81B885EAE0F0E00E949F023E2F00
:1001B800D801EAE0F0E00E949F022E2FD801EAE081
:1001C800F0E00E9487025E2FA52FBB27EAE0F0E04F
:1001D8000E94A2024E2FA52FB0E0EAE0F0E00E94B4
:1001E8009A02EE83AE81A05D10D1A42FA05D0DD13F
:1001F800A22FA05D0AD1A32FA05D07D10E94C5023E
:1002080029960895E0E8E0936100E0E0E09361005A
:10021800E6E0E4B9E2E0E5B9E0E0E7B9E8B9E4E04E
:10022800EAB9E2E1EBB9E0E0E4BDE5BDE6BDE7BD72
:10023800E8BDE0938000E0938100E0938500E093BF
:100248008400E0938700E0938600E0938900E093C0
:100258008800E0938B00E0938A00E093B600E09377
:10026800B000E093B100E093B200E093B300E093F4
:10027800B400E0936E00E0936F00E0937000E093A9
:100288006900EDBBE0936800E093C000E8E1E0930B
:10029800C100E6E0E093C200E0E0E093C500E3E3DC
:1002A800E093C400E0E8E0BFE0E0E0937F00E09383
:1002B8007E00E0ECE0937C00E3E8E0937A00E0E085
:1002C800E0937B00ECBDE093BC005A98A0E1C3D05A
:1002D8000E945E02A0E0B3E0ADD0E0E0EA93A1E0C6
:1002E8007BD0ABE0B3E00E946302A5E032DFDF0120
:1002F800E5E0F0E00E9487023E2E4F2EE0E0EA9310
:10030800A1E06AD0A6E1B3E095D0A32DB42D3DDFDE
:100318005A982A98A4E01DDF5E2E6F2E0E945E0276
:10032800ABE1B3E087D0A52DB62D2FDF5A982A98D8
:10033800E6E9F0E0E315F4053CF42A9A0E945E022F
:10034800A5E2B3E00E946302E2E5F3E05E166F0601
:100358003CF42A9A0E945E02AFE2B3E00E94630274
:100368004C9907C0299A0E945E02AEE3B3E00E944E
:100378006302BBCFFFCFAA93E881E07111F05D9AC9
:1003880001C05D98E881E07211F05E9A01C05E9844
:10039800E881E07411F05F9A01C05F98E881E07825
:1003A80011F0289A01C028988DE08A95F1F7429AB1
:1003B8008DE08A95F1F742988DE08A95F1F778C03B
:1003C800AA93A881D8DFE881E295E883A881D3DFE2
:1003D80085E88A95F1F76CC0AA93E881F0E0E25BC2
:1003E800FC4FE081A981AE0FEBDFA98098802296AF
:1003F8000895A2E00E946B02ACE0E2DFA1E00E9457
:100408006B02E0E09E2EAE2E0895AA93A881AA3032
:1004180011F0AC1448F0E0E0EA939394A92DDCDFE6
:10042800A881AA3009F444C0A394409AA881C8DFDF
:1004380040983EC0BA93AA931A93A981BA81ED91C4
:10044800A983BA831E2FE03019F0A12FDEDFF5CF84
:10045800188123960895AA93559A569A579A209ADE
:100468003A9A389A399A429840984198C880E881CF
:10047800E058E0935003E881E054E0935103A4E18D
:10048800B0E00E9479020E9471020E9471020E94EB
:100498007102A0E270DF88EC90E00197F1F7A8E222
:1004A8008FDFA4E08DDFA5E88BDFA6E089DFA1DF81
:1004B80021960895E0E0EA93A0E00C94F0010E94F0
:1004C8001E02A0EDB7E00E9479020C94FD010E9483
:1004D800E401A3E0B0E00C947902A0E30E94BF011C
:1004E80088EC90E00197F1F70895109639F080EDC7
:1004F80097E00197F1F7A8951197C9F70895F19535
:10050800E195F04008950024112490E1AA0FBB1F43
:10051800001C111C0E1A1F0A18F40E0E1F1E01C013
:10052800A1609A9599F7FD01D001089515D0EBDFE8
:100538000EF4E5DF0895E7DFFD010895E894B7FFBD
:1005480004C0A095B09511966894F7FDD8DFDBDF5D
:10055800FD010EF4D4DF0895E894F7FF02C0CFDF61
:100568006894B7FF06C0A095B095119600F803945B
:1005780000FA08955A934A933A932A931A930A933E
:1005880008955D814C813B812A81198108810895F4
:00000001FF
